:100000000C9459000C9481000C9481000C94810094
:100010000C9481000C9481000C9481000C9481005C
:100020000C9481000C9481000C9481000C9481004C
:100030000C9481000C9481000C9481000C9481003C
:100040000C9457060C9481000C94C7060C94A106DE
:100050000C9481000C9481000C9481000C9481001C
:100060000C9481000C948100000000002500280001
:100070002B00040404040404040402020202020229
:10008000030303030303010204081020408001025C
:1000900004081020010204081020000000080002DB
:1000A0000100000304070000000000000000F90642
:1000B000580811241FBECFEFD8E0DEBFCDBF11E03E
:1000C000A0E0B1E0EAE7F6E102C005900D92A63AA1
:1000D000B107D9F722E0A6EAB1E001C01D92A2392A
:1000E000B207E1F710E0C8E5D0E004C02197FE01B7
:1000F0000E942E09C735D107C9F70E948C070C94BE
:10010000300B0C94000090E0FC01E656FF4F249168
:10011000FC01EA57FF4F3491FC01EE58FF4FE49188
:10012000EE2309F43CC0222339F1233091F038F456
:100130002130A9F0223001F584B58F7D12C027301F
:1001400091F02830A1F02430B9F4809180008F7DA7
:1001500003C0809180008F77809380000DC084B5AC
:100160008F7784BD09C08091B0008F7703C08091E4
:10017000B0008F7D8093B000F0E0EE0FFF1FE859D4
:10018000FF4FA591B4919FB7F894611104C08C9171
:100190003095382302C0EC913E2B3C939FBF0895CD
:1001A000CF92DF92EF92FF92CF93DF93EB01CF805C
:1001B000D8840D2C000CEE08FF0829853A85A9018A
:1001C000330F660B770B9A01AB012C193D094E09D1
:1001D0005F09A82FB0E00E94BB0824E630E040E0B1
:1001E00050E00E949C08C20ED31EE41EF51E88E15A
:1001F000C81A8CEFD80A61E08E810E94830082E0E9
:10020000C816D10450F0CC0CDD1CCC0CDD1C85E0F4
:10021000C81AD108C6010197F1F760E08E81DF911D
:10022000CF91FF90EF90DF90CF900C9483008E30B1
:1002300008F08E508770806480937C0080917A00F3
:10024000806480937A0080917A0086FDFCCF809153
:1002500078002091790090E0922B08953FB7F894B0
:100260008091AB019091AC01A091AD01B091AE0134
:1002700026B5A89B05C02F3F19F00196A11DB11D01
:100280003FBFBA2FA92F982F8827820F911DA11D3C
:10029000B11DBC01CD0142E0660F771F881F991F79
:1002A0004A95D1F70895CF92DF92EF92FF920F9384
:1002B0001F93CF93DF936C017A018B01C0E0D0E0F4
:1002C000CE15DF0581F0D8016D918D01D601ED913C
:1002D000FC910190F081E02DC6010995892B11F068
:1002E0002196EECF7E01C701DF91CF911F910F9133
:1002F000FF90EF90DF90CF900895FC0144815581ED
:10030000608171818FEA91E00C945301089580E03F
:1003100090E00895FC01538D448D252F30E0842F0B
:1003200090E0821B930B541710F0CF96089501971D
:100330000895FC01918D828D981761F0828DDF0107
:10034000A80FB11D5D968C91928D9F5F9F73928FC8
:1003500090E008958FEF9FEF0895FC01918D828DBD
:10036000981731F0828DE80FF11D858D90E008958A
:100370008FEF9FEF0895FC01918D228D892F90E0E2
:10038000805C9F4F821B91098F73992708958FEA94
:1003900091E00E94BB0121E0892B09F420E0822F2B
:1003A0000895FC01848DDF01A80FB11DA35ABF4F32
:1003B0002C91848D90E001968F739927848FA68964
:1003C000B7892C93A089B1898C91837080648C93B8
:1003D000938D848D981306C00288F389E02D808167
:1003E0008F7D80830895EF92FF920F931F93CF9399
:1003F000DF93EC0181E0888F9B8D8C8D981305C075
:10040000E889F989808185FD26C0F62E0B8D10E0E4
:100410000F5F1F4F0F731127E02E8C8DE8120CC059
:100420000FB607FCFACFE889F989808185FFF5CFFF
:10043000CE010E94D101F1CF8B8DFE01E80FF11D9D
:10044000E35AFF4FF0829FB7F8940B8FEA89FB893C
:10045000808180620AC09FB7F894EE89FF8960832B
:10046000E889F98980818370806480839FBF81E0FF
:1004700090E0DF91CF911F910F91FF90EF90089541
:10048000CF93DF93EC01888D8823C9F0EA89FB893B
:10049000808185FD05C0A889B9898C9186FD0FC032
:1004A0000FB607FCF5CF808185FFF2CFA889B98907
:1004B0008C9185FFEDCFCE010E94D101E7CFDF9176
:1004C000CF91089580E090E0892B29F00E94C70128
:1004D00081110C9400000895CF92DF92EF92FF9269
:1004E0000F931F93CF93DF93EC0188810E94170134
:1004F000C980DA800D2C000CEE08FF08092E000CD4
:10050000AA0BBB0B9C01AD012C193D094E095F09DB
:10051000A4E6B0E00E94BB082B813C818901330F27
:10052000220B330BA90198012C193D094E095F09D3
:100530000E949C082536310514F024E630E08D81B8
:100540008E8337FF02C020E030E0280F311DC90143
:10055000959587958D83DF91CF911F910F91FF9096
:10056000EF90DF90CF90089542E050E062E471E0B8
:100570008FEA91E00C9453010E941B0B0F931F9381
:10058000CF93DF93EC0188819981009729F02A812C
:100590003B812617370788F48B016F5F7F4F0E94DE
:1005A000550A009761F0998388831B830A832C8105
:1005B0003D81232B11F4FC01108281E001C080E019
:1005C000DF91CF911F910F910895EF92FF920F93BA
:1005D0001F93CF93DF936115710511F480E01CC068
:1005E00041155105C1F07B01EC018C819D818A018F
:1005F000080F191FB801CE010E94BE02882371F3B3
:10060000288139818C819D81B701820F931F0E94BF
:10061000290B1D830C8381E0DF91CF911F910F91F6
:10062000FF90EF900895CF93DF93EC01888199813B
:10063000009711F00E94CC09198218821D821C8239
:100640001B821A82DF91CF910895CF93DF93EC0143
:100650006115710561F0FB0101900020E9F7319708
:10066000AF01461B570B0E94E502811103C0CE016A
:100670000E941303CE01DF91CF910895CF93DF93B2
:10068000EC01FB0144815581608171810E94E5028A
:10069000811103C0CE010E941303CE01DF91CF91DF
:1006A0000895EF92FF920F931F93CF93DF93EC0186
:1006B0007B018A01BA010E94BE02811104C0CE01F1
:1006C0000E94130307C01D830C83B70188819981A1
:1006D0000E94290BCE01DF91CF911F910F91FF90C6
:1006E000EF900895EF92FF920F931F93CF93DF93B4
:1006F000CDB7DEB762970FB6F894DEBF0FBECDBFA1
:100700008C01CB01F80111821082138212821582B2
:1007100014824AE09E012F5F3F4F7901B9010E9488
:100720006708F70101900020E9F73197AF014E19F2
:100730005F09B701C8010E94510362960FB6F89491
:10074000DEBF0FBECDBFDF91CF911F910F91FF9004
:10075000EF900895EF92FF920F931F93CF93DF9343
:10076000CDB7DEB729970FB6F894DEBF0FBECDBF69
:100770008C01862FF8011182108213821282158259
:1007800014824AE09E012F5F3F4F7901B90190E04A
:100790000E947208F70101900020E9F73197AF013C
:1007A0004E195F09B701C8010E94510329960FB67F
:1007B000F894DEBF0FBECDBFDF91CF911F910F9197
:1007C000FF90EF900895CF93DF93EC01FB01861724
:1007D000970761F0608171816115710529F044818D
:1007E00055810E94510302C00E941303CE01DF9184
:1007F000CF9108950F931F93CF93DF93EC018B015B
:10080000198218821B821A821D821C820E94E303B5
:10081000F80186818E838781908598878F83818573
:1008200092859A878987DF91CF911F910F910895C3
:10083000FC011182108213821282158214826115CA
:10084000710551F0FB0101900020E9F73197AF01EC
:10085000461B570B0C9451030895FC018081918134
:100860000C94CC09BF92CF92DF92EF92FF920F933C
:100870001F93CF93DF93CDB7DEB762970FB6F8948F
:10088000DEBF0FBECDBFB82E8B01682FCE01019603
:100890000E94AA0365E471E0CE0107960E94180445
:1008A000BE016F5F7F4FCE0107960E943E036DE44D
:1008B00071E00E9425030E947D01CE0107960E94EF
:1008C0002D04CE0101960E942D04F801C780D0842A
:1008D0000D2C000CEE08FF0821853285C901330F6D
:1008E000AA0BBB0B9C01AD012C193D094E095F09F8
:1008F000AB2DB0E00E94BB0824E630E040E050E0C1
:100900000E949C08C20ED31EE41EF51EF8E1CF1A09
:10091000FCEFDF0AF8016681CE0101960E94AA036E
:10092000B601CE0107960E94720368E471E0CE0121
:100930000D960E941804BE01695F7F4FCE010D968F
:100940000E943E036CE471E00E942503BE016F5FCC
:100950007F4F0E943E036DE471E00E9425030E94D8
:100960007D01CE010D960E942D04CE0107960E94B6
:100970002D04CE0101960E942D0461E0F8018681CC
:100980000E948300F2E0CF16D10450F0CC0CDD1CA5
:10099000CC0CDD1C85E0C81AD108C6010197F1F71F
:1009A00060E0F80186810E94830062960FB6F89499
:1009B000DEBF0FBECDBFDF91CF911F910F91FF9092
:1009C000EF90DF90CF90BF9008950F931F93CF9338
:1009D000DF93CDB7DEB72C970FB6F894DEBF0FBE0E
:1009E000CDBF8C010E94AA03F801848195810397F1
:1009F00028F560E070E0CE0101960E94720318862F
:100A00001F821A8619861C861B86BE016F5F7F4F68
:100A1000CE0107960E94E303B801CE0107960E941B
:100A20003E03BC01C8010E94E303CE0107960E9469
:100A30002D04CE0101960E942D04D6CFC8012C961C
:100A40000FB6F894DEBF0FBECDBFDF91CF911F91DF
:100A50000F9108958F929F92AF92BF92EF92FF9263
:100A60000F931F93CF93DF93CDB7DEB762970FB687
:100A7000F894DEBF0FBECDBF7C01FC016081CE01CA
:100A800007960E94AA036FE471E0CE0101960E94CE
:100A90001804BE01695F7F4FCE0101960E943E039C
:100AA0000E947D010E94B402CE0101960E942D0495
:100AB000CE0107960E942D04F70180810E94170144
:100AC0008C01BC01CE010D960E94720389899A891E
:100AD000049740F560E070E0CE0107960E94720333
:100AE0001A8219821C821B821E821D82BE01695FCE
:100AF0007F4FCE0101960E94E303BE01635F7F4FEB
:100B0000CE0101960E943E03BC01CE010D960E94CB
:100B1000E303CE0101960E942D04CE0107960E94A8
:100B20002D04D4CF65E571E0CE0101960E94180432
:100B3000BE01635F7F4FCE0101960E943E036DE4CC
:100B400071E00E9425030E947D01CE0101960E9462
:100B50002D04CE010D960E942D04F7018180928014
:100B6000092C000CAA08BB08C801110FAA0BBB0B6B
:100B70009C01AD01281939094A095B09A4E6B0E0D6
:100B80000E94BB08238134818901330F220B330B70
:100B9000A9019801281939094A095B090E949C0892
:100BA0008901622FCE0107960E94E5046CE571E091
:100BB000CE0101960E941804BE01695F7F4FCE01ED
:100BC00001960E943E036DE471E00E9425030E949D
:100BD0007D01CE0101960E942D04CE0107960E9450
:100BE0002D04B8010536110514F064E670E08B01A0
:100BF00077FF02C000E010E0602FCE0107960E9450
:100C0000E50461E671E0CE0101960E941804BE0180
:100C1000695F7F4FCE0101960E943E036DE471E053
:100C20000E9425030E947D01CE0101960E942D04A1
:100C3000CE0107960E942D04F70185818683B801B5
:100C4000680F711D759567956583CE0107960E94A3
:100C5000E50468E671E0CE0101960E941804BE0129
:100C6000695F7F4FCE0101960E943E036DE471E003
:100C70000E9425030E947D01CE0101960E942D0451
:100C8000CE0107960E942D04F701858162960FB66A
:100C9000F894DEBF0FBECDBFDF91CF911F910F91B2
:100CA000FF90EF90BF90AF909F908F9008951F920C
:100CB0000F920FB60F9211242F933F938F939F9310
:100CC000AF93BF938091A7019091A801A091A90132
:100CD000B091AA013091A60123E0230F2D3720F413
:100CE0000196A11DB11D05C026E8230F0296A11D86
:100CF000B11D2093A6018093A7019093A801A09312
:100D0000A901B093AA018091AB019091AC01A0918F
:100D1000AD01B091AE010196A11DB11D8093AB0153
:100D20009093AC01A093AD01B093AE01BF91AF9190
:100D30009F918F913F912F910F900FBE0F901F9019
:100D400018951F920F920FB60F9211242F933F9375
:100D50004F935F936F937F938F939F93AF93BF93C3
:100D6000EF93FF938FEA91E00E94D101FF91EF9101
:100D7000BF91AF919F918F917F916F915F914F91B3
:100D80003F912F910F900FBE0F901F9018951F92BB
:100D90000F920FB60F9211242F938F939F93EF937F
:100DA000FF93E091BF01F091C0018081E091C50106
:100DB000F091C60182FD12C090818091C8018F5FC1
:100DC0008F732091C901821751F0E091C801F0E0C2
:100DD000E155FE4F958F8093C80101C08081FF913E
:100DE000EF919F918F912F910F900FBE0F901F90B9
:100DF0001895EF92FF920F931F93CF93DF93EFEA33
:100E0000F1E01382128288EE93E0A0E0B0E08483E8
:100E10009583A683B78384E391E09183808385ECF7
:100E200090E09587848784EC90E09787868780ECB4
:100E300090E0918B808B81EC90E0938B828B82ECA5
:100E400090E0958B848B86EC90E0978B868B118E4F
:100E5000128E138E148E60E771E08CE492E00E9493
:100E60001804CCE4D2E083E08E8304E610E0188717
:100E70000F8388EEE82E83E0F82EFA86E98666E78F
:100E800071E087E592E00E94180485E0898B1B8B56
:100E90000A8BFD8AEC8A62E871E082E692E00E94A9
:100EA000180486E08C8F8CE99FEF9E8F8D8F94E8DD
:100EB000E92E93E0F92EF8A2EF8E60E971E08DE65D
:100EC00092E00E9418048AE08FA319A708A7FBA646
:100ED000EAA666E971E088E792E00E9418048BE0D8
:100EE0008AAB1CAA1BAA8CE494E09EAB8DAB6CE988
:100EF00071E083E892E00E94180489E08DAF1FAF93
:100F00000EAFF0928D02E0928C02DF91CF911F9193
:100F10000F91FF90EF900895CF93DF93CDB7DEB799
:100F20002B970FB6F894DEBF0FBECDBF789484B573
:100F3000826084BD84B5816084BD85B5826085BDD5
:100F400085B5816085BD80916E00816080936E0063
:100F50001092810080918100826080938100809155
:100F60008100816080938100809180008160809306
:100F700080008091B10084608093B1008091B000C6
:100F800081608093B00080917A00846080937A00C1
:100F900080917A00826080937A0080917A008160EB
:100FA00080937A0080917A00806880937A00109212
:100FB000C10080E091E00E946C02C82E87E091E0C1
:100FC0000E946C02D82E8EE091E00E946C02E82E06
:100FD00085E191E00E946C02F82E8CE191E00E9484
:100FE0006C02082F83E291E00E946C02182F6CE4DF
:100FF00072E0CE0101960E94FA03BE016F5F7F4F3F
:101000008C2D0E94D000CE0101960E942D0467E530
:1010100072E0CE0101960E94FA03BE016F5F7F4F1E
:101020008D2D0E94D000CE0101960E942D0462E613
:1010300072E0CE0101960E94FA03BE016F5F7F4FFE
:101040008E2D0E94D000CE0101960E942D046DE6E7
:1010500072E0CE0101960E94FA03BE016F5F7F4FDE
:101060008F2D0E94D000CE0101960E942D0468E7CA
:1010700072E0CE0101960E94FA03BE016F5F7F4FBE
:10108000802F0E94D000CE0101960E942D0463E8BB
:1010900072E0CE0101960E94FA03BE016F5F7F4F9E
:1010A000812F0E94D000CE0101960E942D0481CF95
:1010B000CF93DF93CEE8D2E02B97CE010E942D0490
:1010C00082E0CC34D807C1F7DF91CF910895BB27D8
:1010D0004A3031F4992322F4BDE2909581959F4FD7
:1010E0000C947308BB27FB015527AA27880F991F6B
:1010F000AA1FA41710F0A41B83955051B9F7A05D47
:10110000AA3308F0A95DA193009779F7B111B193C3
:101110001192CB010C948C08DC01FC01672F7191BA
:101120007723E1F7329704C07C916D9370836291CD
:10113000AE17BF07C8F30895052E97FB1EF4009461
:101140000E94B30857FD07D00E94FD0807FC03D09A
:101150004EF40C94B30850954095309521953F4F2F
:101160004F4F5F4F089590958095709561957F4F93
:101170008F4F9F4F08950E941F09A59F900DB49F08
:10118000900DA49F800D911D112408952F923F92E0
:101190004F925F926F927F928F929F92AF92BF9287
:1011A000CF92DF92EF92FF920F931F93CF93DF9333
:1011B000CDB7DEB7CA1BDB0B0FB6F894DEBF0FBE90
:1011C000CDBF09942A88398848885F846E847D84DD
:1011D0008C849B84AA84B984C884DF80EE80FD80DF
:1011E0000C811B81AA81B981CE0FD11D0FB6F89455
:1011F000DEBF0FBECDBFED010895A1E21A2EAA1BDE
:10120000BB1BFD010DC0AA1FBB1FEE1FFF1FA217B6
:10121000B307E407F50720F0A21BB30BE40BF50BB3
:10122000661F771F881F991F1A9469F7609570953C
:10123000809590959B01AC01BD01CF010895A29FBF
:10124000B001B39FC001A39F700D811D1124911D9A
:10125000B29F700D811D1124911D0895EE0FFF1F87
:101260000590F491E02D09940F931F93CF93DF9392
:101270008230910510F482E090E0E0919002F091CC
:10128000910220E030E0A0E0B0E0309719F1408119
:1012900051810281138148175907C8F084179507B7
:1012A00069F4109731F012960C93129713961C93D1
:1012B00027C0009390021093910222C0211531059E
:1012C00019F04217530718F49A01BD01EF01DF012D
:1012D000F801DBCF21153105F9F0281B390B24303B
:1012E000310580F48A819B816115710521F0FB0134
:1012F0009383828304C09093910280939002FE01B5
:10130000329644C0FE01E20FF31F81939193225065
:101310003109398328833AC020918E0230918F029F
:10132000232B41F420912C0130912D0130938F0219
:1013300020938E0220912A0130912B012115310535
:1013400041F42DB73EB740912E0150912F01241B3F
:10135000350BE0918E02F0918F02E217F307A0F4B3
:101360002E1B3F0B2817390778F0AC014E5F5F4FFB
:101370002417350748F04E0F5F1F50938F0240939C
:101380008E028193919302C0E0E0F0E0CF01DF9103
:10139000CF911F910F910895CF93DF93009709F498
:1013A00081C0FC01329713821282A0919002B09109
:1013B0009102109781F420813181820F931F209137
:1013C0008E0230918F022817390751F5F0938F0262
:1013D000E0938E0267C0ED0120E030E0CE17DF071A
:1013E00040F44A815B819E0141155105F1F0EA010B
:1013F000F5CFD383C28340815181840F951FC817D5
:10140000D90759F488819981840F951F0296918399
:1014100080838A819B81938382832115310529F4FE
:10142000F0939102E09390023DC0E901FB83EA83CF
:1014300049915991C40FD51FEC17FD0761F48081C4
:101440009181840F951F0296E90199838883828197
:1014500093819B838A83E0E0F0E012968D919C91CA
:101460001397009719F0FD01DC01F7CF8D919C9146
:1014700011979D012E5F3F4F820F931F20918E0287
:1014800030918F022817390769F4309729F41092A8
:1014900091021092900202C013821282B0938F02C6
:1014A000A0938E02DF91CF910895A0E0B0E0EBE52C
:1014B000FAE00C94CA08EC01009721F4CB010E94D9
:1014C0003409B4C0FC01E60FF71F9C01225031091A
:1014D000E217F30708F4A8C0D9010D911C911197E8
:1014E00006171707B0F00530110508F49BC0C801B6
:1014F00004978617970708F495C002501109061B38
:10150000170B019311936D937C93CF010E94CC092B
:1015100089C05B01A01AB10A4C01800E911EA091F6
:101520009002B0919102612C712CE12CF12C10975A
:1015300009F446C08D919C911197A815B905B1F594
:101540006C0142E0C40ED11CCA14DB0478F14C01DA
:101550008A189B08640142E0C40ED11C1296BC900C
:1015600012971396AC91B5E0CB16D10440F0B2823D
:10157000A38391828082D9016D937C9309C00E5F11
:101580001F4F800F911FF90191838083EB2DFA2F5C
:10159000E114F10431F0D7011396FC93EE93129706
:1015A00041C0F0939102E09390023CC06816790626
:1015B00008F43C017D0112960D90BC91A02DB7CF8F
:1015C00080918E0290918F0288169906E1F466163A
:1015D0007706C8F480912A0190912B01009741F47D
:1015E0008DB79EB740912E0150912F01841B950B12
:1015F000E817F907C8F4F0938F02E0938E02F9011F
:10160000718360830FC0CB010E9434097C01009775
:1016100059F0A801BE010E94200BCE010E94CC0906
:10162000C70104C0CE0102C080E090E0CDB7DEB7B4
:10163000EEE00C94E60881E090E0F8940C94300B16
:10164000FB01DC0102C001900D9241505040D8F7DF
:101650000895FB01DC0101900D920020E1F708954F
:1016600010E0C8E5D0E004C0FE010E942E092196DA
:0A167000C935D107C9F7F894FFCF80
:10167A00000000FF033232010000FF033232020091
:10168A0000FF033232050000FF033232030000FF7D
:10169A00033232040000FF033232000092022000BB
:1016AA0000000000F30153018A014002BB019901C5
:1016BA00AD010D0A00533A0064543A002C20007020
:1016CA006F743A2000726177494E3A006D61703A40
:1016DA0000636F6E73743A006176724F55543A0024
:1016EA0050696E6B790072696E672046696E67652C
:1016FA0072006D6964646C652046696E6765720084
:10170A00696E646578007468756D62004449534176
:06171A00424C45440000B2
:00000001FF
