:100000000C9459000C9481000C9481000C94810094
:100010000C9481000C9481000C9481000C9481005C
:100020000C9481000C9481000C9481000C9481004C
:100030000C9481000C9481000C9481000C9481003C
:100040000C941C060C9481000C948C060C9466068F
:100050000C9481000C9481000C9481000C9481001C
:100060000C9481000C948100000000002500280001
:100070002B00040404040404040402020202020229
:10008000030303030303010204081020408001025C
:1000900004081020010204081020000000080002DB
:1000A0000100000304070000000000000000BE067D
:1000B0003C0811241FBECFEFD8E0DEBFCDBF11E05A
:1000C000A0E0B1E0E2E4F6E102C005900D92AA38AA
:1000D000B107D9F722E0AAE8B1E001C01D92A63726
:1000E000B207E1F710E0C8E5D0E004C02197FE01B7
:1000F0000E941209C735D107C9F70E9451070C9415
:10010000140B0C94000090E0FC01E656FF4F249184
:10011000FC01EA57FF4F3491FC01EE58FF4FE49188
:10012000EE2309F43CC0222339F1233091F038F456
:100130002130A9F0223001F584B58F7D12C027301F
:1001400091F02830A1F02430B9F4809180008F7DA7
:1001500003C0809180008F77809380000DC084B5AC
:100160008F7784BD09C08091B0008F7703C08091E4
:10017000B0008F7D8093B000F0E0EE0FFF1FE859D4
:10018000FF4FA591B4919FB7F894611104C08C9171
:100190003095382302C0EC913E2B3C939FBF0895CD
:1001A000CF92DF92EF92FF92CF93DF93EB01CF805C
:1001B000D8840D2C000CEE08FF0829853A85A9018A
:1001C000330F660B770B9A01AB012C193D094E09D1
:1001D0005F09A82FB0E00E949F0824E630E040E0CD
:1001E00050E00E948008C20ED31EE41EF51E88E176
:1001F000C81A8CEFD80A61E08E810E94830082E0E9
:10020000C816D10450F0CC0CDD1CCC0CDD1C85E0F4
:10021000C81AD108C6010197F1F760E08E81DF911D
:10022000CF91FF90EF90DF90CF900C9483008E30B1
:1002300008F08E508770806480937C0080917A00F3
:10024000806480937A0080917A0086FDFCCF809153
:1002500078002091790090E0922B08953FB7F894B0
:1002600080918F0190919001A0919101B0919201A4
:1002700026B5A89B05C02F3F19F00196A11DB11D01
:100280003FBFBA2FA92F982F8827820F911DA11D3C
:10029000B11DBC01CD0142E0660F771F881F991F79
:1002A0004A95D1F708958F929F92AF92BF92CF92C5
:1002B000DF92EF92FF926B017C010E942E014B01B5
:1002C0005C01C114D104E104F104F1F00E942E019B
:1002D000DC01CB0188199909AA09BB09883E934022
:1002E000A105B10570F321E0C21AD108E108F108B7
:1002F00088EE880E83E0981EA11CB11CC114D104A5
:10030000E104F10419F7DDCFFF90EF90DF90CF907B
:10031000BF90AF909F908F900895CF92DF92EF9211
:10032000FF920F931F93CF93DF936C017A018B01A0
:10033000C0E0D0E0CE15DF0581F0D8016D918D01D0
:10034000D601ED91FC910190F081E02DC601099557
:10035000892B11F02196EECF7E01C701DF91CF915D
:100360001F910F91FF90EF90DF90CF900895FC01C7
:10037000448155816081718183E991E00C948D0104
:10038000089580E090E00895FC01538D448D252F61
:1003900030E0842F90E0821B930B541710F0CF961F
:1003A000089501970895FC01918D828D981761F051
:1003B000828DDF01A80FB11D5D968C91928D9F5F9C
:1003C0009F73928F90E008958FEF9FEF0895FC0147
:1003D000918D828D981731F0828DE80FF11D858DFA
:1003E00090E008958FEF9FEF0895FC01918D228D8D
:1003F000892F90E0805C9F4F821B91098F73992712
:10040000089583E991E00E94F50121E0892B09F428
:1004100020E0822F0895FC01848DDF01A80FB11D1B
:10042000A35ABF4F2C91848D90E001968F7399272A
:10043000848FA689B7892C93A089B1898C91837008
:1004400080648C93938D848D981306C00288F38901
:10045000E02D80818F7D80830895EF92FF920F932E
:100460001F93CF93DF93EC0181E0888F9B8D8C8D60
:10047000981305C0E889F989808185FD26C0F62E8C
:100480000B8D10E00F5F1F4F0F731127E02E8C8D27
:10049000E8120CC00FB607FCFACFE889F989808111
:1004A00085FFF5CFCE010E940B02F1CF8B8DFE01AF
:1004B000E80FF11DE35AFF4FF0829FB7F8940B8FBE
:1004C000EA89FB89808180620AC09FB7F894EE892F
:1004D000FF896083E889F9898081837080648083E3
:1004E0009FBF81E090E0DF91CF911F910F91FF902E
:1004F000EF900895CF93DF93EC01888D8823C9F0A6
:10050000EA89FB89808185FD05C0A889B9898C911C
:1005100086FD0FC00FB607FCF5CF808185FFF2CFB7
:10052000A889B9898C9185FFEDCFCE010E940B027D
:10053000E7CFDF91CF91089580E090E0892B29F0FB
:100540000E94010281110C9400000895CF92DF9265
:10055000EF92FF920F931F93CF93DF93EC0188816B
:100560000E941701C980DA800D2C000CEE08FF08EC
:10057000092E000CAA0BBB0B9C01AD012C193D09E7
:100580004E095F09A4E6B0E00E949F082B813C81E0
:100590008901330F220B330BA90198012C193D0956
:1005A0004E095F090E9480082536310514F024E6C3
:1005B00030E08D818E8337FF02C020E030E0280FCD
:1005C000311DC901959587958D83DF91CF911F913D
:1005D0000F91FF90EF90DF90CF900895DF92EF9210
:1005E000FF920F931F93CF93DF9300D000D000D0E2
:1005F000CDB7DEB780E091E00E94A602D82E87E05A
:1006000091E00E94A602E82E8EE091E00E94A602F0
:10061000F82E85E191E00E94A602082F8CE191E07E
:100620000E94A602182F83E291E00E94A6022D2DBF
:100630003E2D4F2D502F612F782F80E090E0269691
:100640000FB6F894DEBF0FBECDBFDF91CF911F91E3
:100650000F91FF90EF90DF90089542E050E068E442
:1006600071E083E991E00C948D010E94FF0A0F93E1
:100670001F93CF93DF93EC0188819981009729F034
:100680002A813B812617370788F48B016F5F7F4FE4
:100690000E94390A009761F0998388831B830A833B
:1006A0002C813D81232B11F4FC01108281E001C0DB
:1006B00080E0DF91CF911F910F910895EF92FF920B
:1006C0000F931F93CF93DF936115710511F480E0B1
:1006D0001CC041155105C1F07B01EC018C819D814D
:1006E0008A01080F191FB801CE010E943703882321
:1006F00071F3288139818C819D81B701820F931F0D
:100700000E940D0B1D830C8381E0DF91CF911F911F
:100710000F91FF90EF900895CF93DF93EC018881C4
:100720009981009711F00E94B009198218821D82E8
:100730001C821B821A82DF91CF910895CF93DF93A1
:10074000EC016115710561F0FB0101900020E9F7F2
:100750003197AF01461B570B0E945E03811103C006
:10076000CE010E948C03CE01DF91CF910895CF93EB
:10077000DF93EC01FB0144815581608171810E940E
:100780005E03811103C0CE010E948C03CE01DF9174
:10079000CF910895EF92FF920F931F93CF93DF9322
:1007A000EC017B018A01BA010E943703811104C068
:1007B000CE010E948C0307C01D830C83B701888182
:1007C00099810E940D0BCE01DF91CF911F910F9166
:1007D000FF90EF900895EF92FF920F931F93CF93A6
:1007E000DF93CDB7DEB729970FB6F894DEBF0FBE03
:1007F000CDBF8C01862FF8011182108213821282E4
:10080000158214824AE09E012F5F3F4F7901B901A2
:1008100090E00E945608F70101900020E9F7319717
:10082000AF014E195F09B701C8010E94CA0329969A
:100830000FB6F894DEBF0FBECDBFDF91CF911F91F1
:100840000F91FF90EF900895EF92FF920F931F93F7
:10085000CF93DF93CDB7DEB762970FB6F894DEBFC4
:100860000FBECDBF8C01CB01F80111821082138223
:100870001282158214824AE09E012F5F3F4F790158
:10088000B9010E944B08F70101900020E9F7319768
:10089000AF014E195F09B701C8010E94CA036296F1
:1008A0000FB6F894DEBF0FBECDBFDF91CF911F9181
:1008B0000F91FF90EF900895CF93DF93EC01FB0130
:1008C0008617970761F0608171816115710529F0C4
:1008D000448155810E94CA0302C00E948C03CE014C
:1008E000DF91CF9108950F931F93CF93DF93EC0186
:1008F0008B01198218821B821A821D821C820E941F
:100900005C04F80186818E838781908598878F8328
:10091000818592859A878987DF91CF911F910F9169
:100920000895FC01118210821382128215821482B2
:100930006115710551F0FB0101900020E9F7319735
:10094000AF01461B570B0C94CA030895FC0180812C
:1009500091810C94B009CF93DF93CDB7DEB7619747
:100960000FB6F894DEBF0FBECDBF4C875D876E8794
:100970007F87888B998B60E372E0CE0101960E949D
:100980007304BE016F5F7F4F8C850E94D000CE0143
:1009900001960E94A6046BE372E0CE0101960E94CC
:1009A0007304BE016F5F7F4F8D850E94D000CE0122
:1009B00001960E94A60466E472E0CE0101960E94B0
:1009C0007304BE016F5F7F4F8E850E94D000CE0101
:1009D00001960E94A60461E572E0CE0101960E9494
:1009E0007304BE016F5F7F4F8F850E94D000CE01E0
:1009F00001960E94A6046CE572E0CE0101960E9469
:100A00007304BE016F5F7F4F88890E94D000CE01C2
:100A100001960E94A60467E672E0CE0101960E944C
:100A20007304BE016F5F7F4F89890E94D000CE01A1
:100A300001960E94A60461960FB6F894DEBF0FBE21
:100A4000CDBFDF91CF910895BF92CF92DF92EF9209
:100A5000FF920F931F93CF93DF93CDB7DEB76297CB
:100A60000FB6F894DEBF0FBECDBFB82E8B01682F36
:100A7000CE0101960E94EB036BE471E0CE01079674
:100A80000E949104BE016F5F7F4FCE0107960E94C6
:100A9000B70363E571E00E949E030E94B701CE0197
:100AA00007960E94A604CE0101960E94A604F801B2
:100AB000C780D0840D2C000CEE08FF0821853285FC
:100AC000C901330FAA0BBB0B9C01AD012C193D09C9
:100AD0004E095F09AB2DB0E00E949F0824E630E08C
:100AE00040E050E00E948008C20ED31EE41EF51EB6
:100AF000F8E1CF1AFCEFDF0AF8016681CE0101961A
:100B00000E94EB03B601CE0107960E9424046EE416
:100B100071E0CE010D960E949104BE01695F7F4F86
:100B2000CE010D960E94B70362E571E00E949E031C
:100B3000BE016F5F7F4F0E94B70363E571E00E94C3
:100B40009E030E94B701CE010D960E94A604CE011D
:100B500007960E94A604CE0101960E94A60461E0B9
:100B6000F80186810E948300F2E0CF16D10450F094
:100B7000CC0CDD1CCC0CDD1C85E0C81AD108C601EC
:100B80000197F1F760E0F80186810E948300629688
:100B90000FB6F894DEBF0FBECDBFDF91CF911F918E
:100BA0000F91FF90EF90DF90CF90BF9008950F933B
:100BB0001F93CF93DF93CDB7DEB72C970FB6F89482
:100BC000DEBF0FBECDBF8C010E94EB03F801848114
:100BD0009581039728F560E070E0CE0101960E94B0
:100BE000240418861F821A8619861C861B86BE015D
:100BF0006F5F7F4FCE0107960E945C04B801CE0163
:100C000007960E94B703BC01C8010E945C04CE0194
:100C100007960E94A604CE0101960E94A604D6CF94
:100C2000C8012C960FB6F894DEBF0FBECDBFDF9182
:100C3000CF911F910F9108951F920F920FB60F92AF
:100C400011242F933F938F939F93AF93BF938091E2
:100C50008B0190918C01A0918D01B0918E0130910A
:100C60008A0123E0230F2D3720F40196A11DB11D29
:100C700005C026E8230F0296A11DB11D20938A010D
:100C800080938B0190938C01A0938D01B0938E0182
:100C900080918F0190919001A0919101B09192016A
:100CA0000196A11DB11D80938F0190939001A09397
:100CB0009101B0939201BF91AF919F918F913F911C
:100CC0002F910F900FBE0F901F9018951F920F92AB
:100CD0000FB60F9211242F933F934F935F936F930F
:100CE0007F938F939F93AF93BF93EF93FF9383E98A
:100CF00091E00E940B02FF91EF91BF91AF919F9104
:100D00008F917F916F915F914F913F912F910F90B4
:100D10000FBE0F901F9018951F920F920FB60F9253
:100D200011242F938F939F93EF93FF93E091A3014F
:100D3000F091A4018081E091A901F091AA0182FDC6
:100D400012C090818091AC018F5F8F732091AD01B3
:100D5000821751F0E091AC01F0E0ED56FE4F958F17
:100D60008093AC0101C08081FF91EF919F918F91A1
:100D70002F910F900FBE0F901F901895EF92FF923A
:100D80000F931F93CF93DF93E3E9F1E01382128275
:100D900088EE93E0A0E0B0E084839583A683B783D8
:100DA0008AE391E09183808385EC90E09587848746
:100DB00084EC90E09787868780EC90E0918B808B25
:100DC00081EC90E0938B828B82EC90E0958B848B0E
:100DD00086EC90E0978B868B118E128E138E148E7C
:100DE00065E571E080E392E00E949104C0E3D2E007
:100DF00083E08E8304E610E018870F8388EEE82EE8
:100E000083E0F82EFA86E9866BE571E08BE392E0E9
:100E10000E94910485E0898B1B8B0A8BFD8AEC8AEA
:100E200067E671E086E492E00E94910486E08C8F90
:100E30008CE99FEF9E8F8D8F94E8E92E93E0F92E39
:100E4000F8A2EF8E65E771E081E592E00E949104DF
:100E50008AE08FA319A708A7FBA6EAA66BE771E0B3
:100E60008CE592E00E9491048BE08AAB1CAA1BAA3D
:100E70008CE494E09EAB8DAB61E871E087E692E094
:100E80000E94910489E08DAF1FAF0EAFF092710206
:100E9000E0927002DF91CF911F910F91FF90EF9040
:100EA0000895CF93DF93CDB7DEB76E970FB6F89462
:100EB000DEBF0FBECDBF789484B5826084BD84B59B
:100EC000816084BD85B5826085BD85B5816085BD45
:100ED00080916E00816080936E00109281008091FD
:100EE0008100826080938100809181008160809385
:100EF0008100809180008160809380008091B100AA
:100F000084608093B1008091B00081608093B000D4
:100F100080917A00846080937A0080917A00826068
:100F200080937A0080917A00816080937A0080912A
:100F30007A00806880937A001092C10006E0CE01AA
:100F400001967C01D0903001C0903101B090320107
:100F5000A090330190903401809035010E94EE0200
:100F6000298F3A8F4B8F5C8F6D8F7E8F233308F4E0
:100F700062C0333308F45FC0423308F05CC05333BF
:100F800008F459C00E94EE022B8B3C8B4D8B5E8B7C
:100F90006F8B788F86E0E0E3F1E0DE011D96019033
:100FA0000D928A95E1F71AE064E670E080E090E047
:100FB0000E945301F701802F11928A95E9F7498128
:100FC0005A816B817C818D819E810E94AB0411507E
:100FD00059F74D855E856F85788989899A890E9440
:100FE000AB048B89833380F586E0FE017396DE01C6
:100FF000179601900D928A95E1F71AE064E670E089
:1010000080E090E00E945301F701802F11928A95B1
:10101000E9F749815A816B817C818D819E810E9493
:10102000AB04115059F74F81588569857A858B85B6
:101030009C850E94AB04498D5A8D6B8D7C8D8D8D66
:101040009E8D0E94AB048ACF8C89833368F28D8990
:10105000823350F68E89833338F20E94EE022B8B56
:101060003C8B4D8B5E8B6F8B788F4D2D5C2D6B2D5C
:101070007A2D892D982DB3CFCF93DF93C2E7D2E09D
:101080002B97CE010E94A60482E0C033D807C1F797
:10109000DF91CF910895BB274A3031F4992322F490
:1010A000BDE2909581959F4F0C945708BB27FB019B
:1010B0005527AA27880F991FAA1FA41710F0A41B51
:1010C00083955051B9F7A05DAA3308F0A95DA193AB
:1010D000009779F7B111B1931192CB010C9470087C
:1010E000DC01FC01672F71917723E1F7329704C08F
:1010F0007C916D9370836291AE17BF07C8F308951A
:10110000052E97FB1EF400940E94970857FD07D008
:101110000E94E10807FC03D04EF40C949708509508
:101120004095309521953F4F4F4F5F4F08959095D3
:101130008095709561957F4F8F4F9F4F08950E94C6
:101140000309A59F900DB49F900DA49F800D911D44
:10115000112408952F923F924F925F926F927F9247
:101160008F929F92AF92BF92CF92DF92EF92FF92B7
:101170000F931F93CF93DF93CDB7DEB7CA1BDB0B63
:101180000FB6F894DEBF0FBECDBF09942A88398808
:1011900048885F846E847D848C849B84AA84B9840F
:1011A000C884DF80EE80FD800C811B81AA81B9811B
:1011B000CE0FD11D0FB6F894DEBF0FBECDBFED012F
:1011C0000895A1E21A2EAA1BBB1BFD010DC0AA1F88
:1011D000BB1FEE1FFF1FA217B307E407F50720F0A0
:1011E000A21BB30BE40BF50B661F771F881F991F1B
:1011F0001A9469F760957095809590959B01AC0164
:10120000BD01CF010895A29FB001B39FC001A39F6C
:10121000700D811D1124911DB29F700D811D11242F
:10122000911D0895EE0FFF1F0590F491E02D099494
:101230000F931F93CF93DF938230910510F482E0D8
:1012400090E0E0917402F091750220E030E0A0E0BF
:10125000B0E0309719F14081518102811381481724
:101260005907C8F08417950769F4109731F0129662
:101270000C93129713961C9327C00093740210933B
:10128000750222C02115310519F04217530718F4D1
:101290009A01BD01EF01DF01F801DBCF2115310516
:1012A000F9F0281B390B2430310580F48A819B81A9
:1012B0006115710521F0FB019383828304C0909333
:1012C000750280937402FE01329644C0FE01E20F63
:1012D000F31F8193919322503109398328833AC0B7
:1012E0002091720230917302232B41F420912C0142
:1012F00030912D01309373022093720220912A01C4
:1013000030912B012115310541F42DB73EB74091A5
:101310002E0150912F01241B350BE0917202F091A8
:101320007302E217F307A0F42E1B3F0B28173907AF
:1013300078F0AC014E5F5F4F2417350748F04E0F31
:101340005F1F50937302409372028193919302C086
:10135000E0E0F0E0CF01DF91CF911F910F91089570
:10136000CF93DF93009709F481C0FC013297138279
:101370001282A0917402B0917502109781F42081BD
:101380003181820F931F20917202309173022817CE
:10139000390751F5F0937302E093720267C0ED01D3
:1013A00020E030E0CE17DF0740F44A815B819E01E8
:1013B00041155105F1F0EA01F5CFD383C283408195
:1013C0005181840F951FC817D90759F488819981D5
:1013D000840F951F0296918380838A819B819383DA
:1013E00082832115310529F4F0937502E09374028C
:1013F0003DC0E901FB83EA8349915991C40FD51F90
:10140000EC17FD0761F480819181840F951F02968E
:10141000E90199838883828193819B838A83E0E0B9
:10142000F0E012968D919C911397009719F0FD01B1
:10143000DC01F7CF8D919C9111979D012E5F3F4F5D
:10144000820F931F2091720230917302281739077F
:1014500069F4309729F4109275021092740202C058
:1014600013821282B0937302A0937202DF91CF9124
:101470000895A0E0B0E0EFE3FAE00C94AE08EC01D0
:10148000009721F4CB010E941809B4C0FC01E60FBB
:10149000F71F9C0122503109E217F30708F4A8C096
:1014A000D9010D911C91119706171707B0F005305F
:1014B000110508F49BC0C80104978617970708F424
:1014C00095C002501109061B170B019311936D93E0
:1014D0007C93CF010E94B00989C05B01A01AB10AB8
:1014E0004C01800E911EA0917402B0917502612C86
:1014F000712CE12CF12C109709F446C08D919C9130
:101500001197A815B905B1F56C0142E0C40ED11CC4
:10151000CA14DB0478F14C018A189B08640142E08C
:10152000C40ED11C1296BC9012971396AC91B5E0E4
:10153000CB16D10440F0B282A38391828082D9017C
:101540006D937C9309C00E5F1F4F800F911FF901AF
:1015500091838083EB2DFA2FE114F10431F0D70150
:101560001396FC93EE93129741C0F0937502E093AB
:1015700074023CC06816790608F43C017D0112969D
:101580000D90BC91A02DB7CF809172029091730203
:1015900088169906E1F466167706C8F480912A0148
:1015A00090912B01009741F48DB79EB740912E0189
:1015B00050912F01841B950BE817F907C8F4F0939D
:1015C0007302E0937202F901718360830FC0CB0153
:1015D0000E9418097C01009759F0A801BE010E94E1
:1015E000040BCE010E94B009C70104C0CE0102C0A5
:1015F00080E090E0CDB7DEB7EEE00C94CA0881E061
:1016000090E0F8940C94140BFB01DC0102C00190F3
:101610000D9241505040D8F70895FB01DC01019034
:101620000D920020E1F7089510E0C8E5D0E004C075
:10163000FE010E9412092196C935D107C9F7F89415
:02164000FFCFDA
:10164200000000FF033232010000FF0332320200C9
:1016520000FF033232050000FF033232030000FFB5
:10166200033232040000FF0332320000760220000F
:10167200646400006400000000002D028D01C401BA
:101682007A02F501D301E7010D0A00533A006454CE
:101692003A002C200050696E6B790072696E6720E7
:1016A20046696E676572006D6964646C652046699F
:1016B2006E67657200696E646578007468756D6244
:0A16C2000044495341424C454400E6
:00000001FF
